{
  "contractName": "BroccoliMaster",
  "abi": [
    {
      "inputs": [
        {
          "internalType": "contract BroccoliToken",
          "name": "_broc",
          "type": "address"
        },
        {
          "internalType": "address",
          "name": "_devaddr",
          "type": "address"
        },
        {
          "internalType": "address",
          "name": "_devaddrtwo",
          "type": "address"
        },
        {
          "internalType": "address",
          "name": "_devaddrthree",
          "type": "address"
        },
        {
          "internalType": "address",
          "name": "_devaddrfour",
          "type": "address"
        },
        {
          "internalType": "address",
          "name": "_devaddrfive",
          "type": "address"
        },
        {
          "internalType": "uint256",
          "name": "_brocPerBlock",
          "type": "uint256"
        },
        {
          "internalType": "uint256",
          "name": "_startBlock",
          "type": "uint256"
        },
        {
          "internalType": "uint256",
          "name": "_bonusEndBlock",
          "type": "uint256"
        },
        {
          "internalType": "bool",
          "name": "_privateFarm",
          "type": "bool"
        }
      ],
      "stateMutability": "nonpayable",
      "type": "constructor"
    },
    {
      "anonymous": false,
      "inputs": [
        {
          "indexed": true,
          "internalType": "address",
          "name": "user",
          "type": "address"
        },
        {
          "indexed": true,
          "internalType": "uint256",
          "name": "pid",
          "type": "uint256"
        },
        {
          "indexed": false,
          "internalType": "uint256",
          "name": "amount",
          "type": "uint256"
        }
      ],
      "name": "Deposit",
      "type": "event"
    },
    {
      "anonymous": false,
      "inputs": [
        {
          "indexed": true,
          "internalType": "address",
          "name": "user",
          "type": "address"
        },
        {
          "indexed": true,
          "internalType": "uint256",
          "name": "pid",
          "type": "uint256"
        },
        {
          "indexed": false,
          "internalType": "uint256",
          "name": "amount",
          "type": "uint256"
        }
      ],
      "name": "EmergencyWithdraw",
      "type": "event"
    },
    {
      "anonymous": false,
      "inputs": [
        {
          "indexed": true,
          "internalType": "address",
          "name": "previousOwner",
          "type": "address"
        },
        {
          "indexed": true,
          "internalType": "address",
          "name": "newOwner",
          "type": "address"
        }
      ],
      "name": "OwnershipTransferred",
      "type": "event"
    },
    {
      "anonymous": false,
      "inputs": [
        {
          "indexed": true,
          "internalType": "address",
          "name": "user",
          "type": "address"
        },
        {
          "indexed": true,
          "internalType": "uint256",
          "name": "pid",
          "type": "uint256"
        },
        {
          "indexed": false,
          "internalType": "uint256",
          "name": "amount",
          "type": "uint256"
        }
      ],
      "name": "Withdraw",
      "type": "event"
    },
    {
      "inputs": [],
      "name": "BONUS_MULTIPLIER",
      "outputs": [
        {
          "internalType": "uint256",
          "name": "",
          "type": "uint256"
        }
      ],
      "stateMutability": "view",
      "type": "function",
      "constant": true
    },
    {
      "inputs": [],
      "name": "DEV_SHARES",
      "outputs": [
        {
          "internalType": "uint256",
          "name": "",
          "type": "uint256"
        }
      ],
      "stateMutability": "view",
      "type": "function",
      "constant": true
    },
    {
      "inputs": [],
      "name": "bonusEndBlock",
      "outputs": [
        {
          "internalType": "uint256",
          "name": "",
          "type": "uint256"
        }
      ],
      "stateMutability": "view",
      "type": "function",
      "constant": true
    },
    {
      "inputs": [],
      "name": "broc",
      "outputs": [
        {
          "internalType": "contract BroccoliToken",
          "name": "",
          "type": "address"
        }
      ],
      "stateMutability": "view",
      "type": "function",
      "constant": true
    },
    {
      "inputs": [],
      "name": "brocPerBlock",
      "outputs": [
        {
          "internalType": "uint256",
          "name": "",
          "type": "uint256"
        }
      ],
      "stateMutability": "view",
      "type": "function",
      "constant": true
    },
    {
      "inputs": [],
      "name": "devaddr",
      "outputs": [
        {
          "internalType": "address",
          "name": "",
          "type": "address"
        }
      ],
      "stateMutability": "view",
      "type": "function",
      "constant": true
    },
    {
      "inputs": [],
      "name": "devaddrfive",
      "outputs": [
        {
          "internalType": "address",
          "name": "",
          "type": "address"
        }
      ],
      "stateMutability": "view",
      "type": "function",
      "constant": true
    },
    {
      "inputs": [],
      "name": "devaddrfour",
      "outputs": [
        {
          "internalType": "address",
          "name": "",
          "type": "address"
        }
      ],
      "stateMutability": "view",
      "type": "function",
      "constant": true
    },
    {
      "inputs": [],
      "name": "devaddrthree",
      "outputs": [
        {
          "internalType": "address",
          "name": "",
          "type": "address"
        }
      ],
      "stateMutability": "view",
      "type": "function",
      "constant": true
    },
    {
      "inputs": [],
      "name": "devaddrtwo",
      "outputs": [
        {
          "internalType": "address",
          "name": "",
          "type": "address"
        }
      ],
      "stateMutability": "view",
      "type": "function",
      "constant": true
    },
    {
      "inputs": [],
      "name": "owner",
      "outputs": [
        {
          "internalType": "address",
          "name": "",
          "type": "address"
        }
      ],
      "stateMutability": "view",
      "type": "function",
      "constant": true
    },
    {
      "inputs": [
        {
          "internalType": "uint256",
          "name": "",
          "type": "uint256"
        }
      ],
      "name": "poolInfo",
      "outputs": [
        {
          "internalType": "contract IERC20",
          "name": "lpToken",
          "type": "address"
        },
        {
          "internalType": "uint256",
          "name": "allocPoint",
          "type": "uint256"
        },
        {
          "internalType": "uint256",
          "name": "lastRewardBlock",
          "type": "uint256"
        },
        {
          "internalType": "uint256",
          "name": "accBrocPerShare",
          "type": "uint256"
        }
      ],
      "stateMutability": "view",
      "type": "function",
      "constant": true
    },
    {
      "inputs": [],
      "name": "renounceOwnership",
      "outputs": [],
      "stateMutability": "nonpayable",
      "type": "function"
    },
    {
      "inputs": [],
      "name": "startBlock",
      "outputs": [
        {
          "internalType": "uint256",
          "name": "",
          "type": "uint256"
        }
      ],
      "stateMutability": "view",
      "type": "function",
      "constant": true
    },
    {
      "inputs": [],
      "name": "totalAllocPoint",
      "outputs": [
        {
          "internalType": "uint256",
          "name": "",
          "type": "uint256"
        }
      ],
      "stateMutability": "view",
      "type": "function",
      "constant": true
    },
    {
      "inputs": [
        {
          "internalType": "address",
          "name": "newOwner",
          "type": "address"
        }
      ],
      "name": "transferOwnership",
      "outputs": [],
      "stateMutability": "nonpayable",
      "type": "function"
    },
    {
      "inputs": [
        {
          "internalType": "uint256",
          "name": "",
          "type": "uint256"
        },
        {
          "internalType": "address",
          "name": "",
          "type": "address"
        }
      ],
      "name": "userInfo",
      "outputs": [
        {
          "internalType": "uint256",
          "name": "amount",
          "type": "uint256"
        },
        {
          "internalType": "uint256",
          "name": "rewardDebt",
          "type": "uint256"
        }
      ],
      "stateMutability": "view",
      "type": "function",
      "constant": true
    },
    {
      "inputs": [],
      "name": "poolLength",
      "outputs": [
        {
          "internalType": "uint256",
          "name": "",
          "type": "uint256"
        }
      ],
      "stateMutability": "view",
      "type": "function",
      "constant": true
    },
    {
      "inputs": [
        {
          "internalType": "uint256",
          "name": "_newBrocPerBlock",
          "type": "uint256"
        }
      ],
      "name": "changeBrocPerBlock",
      "outputs": [],
      "stateMutability": "nonpayable",
      "type": "function"
    },
    {
      "inputs": [
        {
          "internalType": "uint256",
          "name": "_allocPoint",
          "type": "uint256"
        },
        {
          "internalType": "contract IERC20",
          "name": "_lpToken",
          "type": "address"
        },
        {
          "internalType": "bool",
          "name": "_withUpdate",
          "type": "bool"
        }
      ],
      "name": "add",
      "outputs": [],
      "stateMutability": "nonpayable",
      "type": "function"
    },
    {
      "inputs": [
        {
          "internalType": "uint256",
          "name": "_pid",
          "type": "uint256"
        },
        {
          "internalType": "uint256",
          "name": "_allocPoint",
          "type": "uint256"
        },
        {
          "internalType": "bool",
          "name": "_withUpdate",
          "type": "bool"
        }
      ],
      "name": "set",
      "outputs": [],
      "stateMutability": "nonpayable",
      "type": "function"
    },
    {
      "inputs": [
        {
          "internalType": "uint256",
          "name": "_from",
          "type": "uint256"
        },
        {
          "internalType": "uint256",
          "name": "_to",
          "type": "uint256"
        }
      ],
      "name": "getMultiplier",
      "outputs": [
        {
          "internalType": "uint256",
          "name": "",
          "type": "uint256"
        }
      ],
      "stateMutability": "view",
      "type": "function",
      "constant": true
    },
    {
      "inputs": [
        {
          "internalType": "uint256",
          "name": "_pid",
          "type": "uint256"
        },
        {
          "internalType": "address",
          "name": "_user",
          "type": "address"
        }
      ],
      "name": "staked",
      "outputs": [
        {
          "internalType": "uint256",
          "name": "",
          "type": "uint256"
        }
      ],
      "stateMutability": "view",
      "type": "function",
      "constant": true
    },
    {
      "inputs": [
        {
          "internalType": "uint256",
          "name": "_pid",
          "type": "uint256"
        },
        {
          "internalType": "address",
          "name": "_user",
          "type": "address"
        }
      ],
      "name": "pendingBroc",
      "outputs": [
        {
          "internalType": "uint256",
          "name": "",
          "type": "uint256"
        }
      ],
      "stateMutability": "view",
      "type": "function",
      "constant": true
    },
    {
      "inputs": [
        {
          "internalType": "uint256",
          "name": "_pid",
          "type": "uint256"
        },
        {
          "internalType": "uint256",
          "name": "_amount",
          "type": "uint256"
        }
      ],
      "name": "deposit",
      "outputs": [],
      "stateMutability": "nonpayable",
      "type": "function"
    },
    {
      "inputs": [
        {
          "internalType": "uint256",
          "name": "_pid",
          "type": "uint256"
        },
        {
          "internalType": "uint256",
          "name": "_amount",
          "type": "uint256"
        }
      ],
      "name": "withdraw",
      "outputs": [],
      "stateMutability": "nonpayable",
      "type": "function"
    },
    {
      "inputs": [
        {
          "internalType": "uint256",
          "name": "_pid",
          "type": "uint256"
        }
      ],
      "name": "emergencyWithdraw",
      "outputs": [],
      "stateMutability": "nonpayable",
      "type": "function"
    },
    {
      "inputs": [],
      "name": "setPublicFarming",
      "outputs": [],
      "stateMutability": "nonpayable",
      "type": "function"
    },
    {
      "inputs": [
        {
          "internalType": "address",
          "name": "_devaddr",
          "type": "address"
        }
      ],
      "name": "setDev",
      "outputs": [],
      "stateMutability": "nonpayable",
      "type": "function"
    },
    {
      "inputs": [
        {
          "internalType": "address",
          "name": "_devaddrtwo",
          "type": "address"
        }
      ],
      "name": "setDevTwo",
      "outputs": [],
      "stateMutability": "nonpayable",
      "type": "function"
    },
    {
      "inputs": [
        {
          "internalType": "address",
          "name": "_devaddrthree",
          "type": "address"
        }
      ],
      "name": "setDevThree",
      "outputs": [],
      "stateMutability": "nonpayable",
      "type": "function"
    },
    {
      "inputs": [
        {
          "internalType": "address",
          "name": "_devaddrfour",
          "type": "address"
        }
      ],
      "name": "setDevFour",
      "outputs": [],
      "stateMutability": "nonpayable",
      "type": "function"
    },
    {
      "inputs": [
        {
          "internalType": "address",
          "name": "_devaddrfive",
          "type": "address"
        }
      ],
      "name": "setDevFive",
      "outputs": [],
      "stateMutability": "nonpayable",
      "type": "function"
    }
  ],
  "bytecode": "0x60806040526000600c553480156200001657600080fd5b5060405162003e4938038062003e4983398181016040526101408110156200003d57600080fd5b81019080805190602001909291908051906020019092919080519060200190929190805190602001909291908051906020019092919080519060200190929190805190602001909291908051906020019092919080519060200190929190805190602001909291905050506000620000ba6200031d60201b60201c565b9050806000806101000a81548173ffffffffffffffffffffffffffffffffffffffff021916908373ffffffffffffffffffffffffffffffffffffffff1602179055508073ffffffffffffffffffffffffffffffffffffffff16600073ffffffffffffffffffffffffffffffffffffffff167f8be0079c531659141344cd1fd0a4f28419497f9722a3daafe3b4186f6b6457e060405160405180910390a35089600160006101000a81548173ffffffffffffffffffffffffffffffffffffffff021916908373ffffffffffffffffffffffffffffffffffffffff16021790555088600260006101000a81548173ffffffffffffffffffffffffffffffffffffffff021916908373ffffffffffffffffffffffffffffffffffffffff16021790555087600360006101000a81548173ffffffffffffffffffffffffffffffffffffffff021916908373ffffffffffffffffffffffffffffffffffffffff16021790555086600460006101000a81548173ffffffffffffffffffffffffffffffffffffffff021916908373ffffffffffffffffffffffffffffffffffffffff16021790555085600560006101000a81548173ffffffffffffffffffffffffffffffffffffffff021916908373ffffffffffffffffffffffffffffffffffffffff16021790555084600660006101000a81548173ffffffffffffffffffffffffffffffffffffffff021916908373ffffffffffffffffffffffffffffffffffffffff160217905550836008819055508160078190555082600d8190555080600960006101000a81548160ff0219169083151502179055505050505050505050505062000325565b600033905090565b613b1480620003356000396000f3fe608060405234801561001057600080fd5b50600436106101fb5760003560e01c806364482f791161011a578063b00c43cf116100ad578063d477f05f1161007c578063d477f05f14610812578063d49e77cd14610856578063dc40155c1461088a578063e2bbb158146108be578063f2fde38b146108f6576101fb565b8063b00c43cf14610778578063b257715a146107bc578063be279845146107c6578063cecd85ce146107e4576101fb565b80638dbb1e3a116100e95780638dbb1e3a1461064b57806393f1a40b14610697578063a336b49214610700578063ad0ca76e14610744576101fb565b806364482f79146105ab578063715018a6146105ef5780638aa28550146105f95780638da5cb5b14610617576101fb565b80632a2f7d1e116101925780634b1da4c9116101615780634b1da4c9146104b95780635312ea8e1461051b578063549652b214610549578063635c6f6a1461058d576101fb565b80632a2f7d1e146103cd5780632dd39ead1461042f578063441a3e701461046357806348cd4cb11461049b576101fb565b80631526fe27116101ce5780631526fe27146102ca57806317caf6f1146103375780631aed6553146103555780631eaaa04514610373576101fb565b8063059dd53d14610200578063081e3eda146102345780630cfb60e81461025257806311fe5e8914610286575b600080fd5b61020861093a565b604051808273ffffffffffffffffffffffffffffffffffffffff16815260200191505060405180910390f35b61023c610960565b6040518082815260200191505060405180910390f35b61025a61096d565b604051808273ffffffffffffffffffffffffffffffffffffffff16815260200191505060405180910390f35b6102c86004803603602081101561029c57600080fd5b81019080803573ffffffffffffffffffffffffffffffffffffffff169060200190929190505050610993565b005b6102f6600480360360208110156102e057600080fd5b8101908080359060200190929190505050610a9a565b604051808573ffffffffffffffffffffffffffffffffffffffff16815260200184815260200183815260200182815260200194505050505060405180910390f35b61033f610af7565b6040518082815260200191505060405180910390f35b61035d610afd565b6040518082815260200191505060405180910390f35b6103cb6004803603606081101561038957600080fd5b8101908080359060200190929190803573ffffffffffffffffffffffffffffffffffffffff169060200190929190803515159060200190929190505050610b03565b005b610419600480360360408110156103e357600080fd5b8101908080359060200190929190803573ffffffffffffffffffffffffffffffffffffffff169060200190929190505050610ce5565b6040518082815260200191505060405180910390f35b610437610f2b565b604051808273ffffffffffffffffffffffffffffffffffffffff16815260200191505060405180910390f35b6104996004803603604081101561047957600080fd5b810190808035906020019092919080359060200190929190505050610f51565b005b6104a361122b565b6040518082815260200191505060405180910390f35b610505600480360360408110156104cf57600080fd5b8101908080359060200190929190803573ffffffffffffffffffffffffffffffffffffffff169060200190929190505050611231565b6040518082815260200191505060405180910390f35b6105476004803603602081101561053157600080fd5b8101908080359060200190929190505050611294565b005b61058b6004803603602081101561055f57600080fd5b81019080803573ffffffffffffffffffffffffffffffffffffffff169060200190929190505050611442565b005b610595611549565b6040518082815260200191505060405180910390f35b6105ed600480360360608110156105c157600080fd5b81019080803590602001909291908035906020019092919080351515906020019092919050505061154f565b005b6105f7611715565b005b61060161189b565b6040518082815260200191505060405180910390f35b61061f6118a0565b604051808273ffffffffffffffffffffffffffffffffffffffff16815260200191505060405180910390f35b6106816004803603604081101561066157600080fd5b8101908080359060200190929190803590602001909291905050506118c9565b6040518082815260200191505060405180910390f35b6106e3600480360360408110156106ad57600080fd5b8101908080359060200190929190803573ffffffffffffffffffffffffffffffffffffffff16906020019092919050505061197b565b604051808381526020018281526020019250505060405180910390f35b6107426004803603602081101561071657600080fd5b81019080803573ffffffffffffffffffffffffffffffffffffffff1690602001909291905050506119ac565b005b61074c611ab3565b604051808273ffffffffffffffffffffffffffffffffffffffff16815260200191505060405180910390f35b6107ba6004803603602081101561078e57600080fd5b81019080803573ffffffffffffffffffffffffffffffffffffffff169060200190929190505050611ad9565b005b6107c4611be0565b005b6107ce611cc5565b6040518082815260200191505060405180910390f35b610810600480360360208110156107fa57600080fd5b8101908080359060200190929190505050611cca565b005b6108546004803603602081101561082857600080fd5b81019080803573ffffffffffffffffffffffffffffffffffffffff169060200190929190505050611d9c565b005b61085e611ea3565b604051808273ffffffffffffffffffffffffffffffffffffffff16815260200191505060405180910390f35b610892611ec9565b604051808273ffffffffffffffffffffffffffffffffffffffff16815260200191505060405180910390f35b6108f4600480360360408110156108d457600080fd5b810190808035906020019092919080359060200190929190505050611eef565b005b6109386004803603602081101561090c57600080fd5b81019080803573ffffffffffffffffffffffffffffffffffffffff169060200190929190505050612580565b005b600460009054906101000a900473ffffffffffffffffffffffffffffffffffffffff1681565b6000600a80549050905090565b600160009054906101000a900473ffffffffffffffffffffffffffffffffffffffff1681565b600360009054906101000a900473ffffffffffffffffffffffffffffffffffffffff1673ffffffffffffffffffffffffffffffffffffffff163373ffffffffffffffffffffffffffffffffffffffff1614610a56576040517f08c379a000000000000000000000000000000000000000000000000000000000815260040180806020018281038252600a8152602001807f6465763a20776861743f0000000000000000000000000000000000000000000081525060200191505060405180910390fd5b80600360006101000a81548173ffffffffffffffffffffffffffffffffffffffff021916908373ffffffffffffffffffffffffffffffffffffffff16021790555050565b600a8181548110610aa757fe5b90600052602060002090600402016000915090508060000160009054906101000a900473ffffffffffffffffffffffffffffffffffffffff16908060010154908060020154908060030154905084565b600c5481565b60075481565b610b0b61278b565b73ffffffffffffffffffffffffffffffffffffffff1660008054906101000a900473ffffffffffffffffffffffffffffffffffffffff1673ffffffffffffffffffffffffffffffffffffffff1614610bcb576040517f08c379a00000000000000000000000000000000000000000000000000000000081526004018080602001828103825260208152602001807f4f776e61626c653a2063616c6c6572206973206e6f7420746865206f776e657281525060200191505060405180910390fd5b8015610bda57610bd9612793565b5b610be3826127c0565b6000600d544311610bf657600d54610bf8565b435b9050610c0f84600c546128c790919063ffffffff16565b600c81905550600a60405180608001604052808573ffffffffffffffffffffffffffffffffffffffff1681526020018681526020018381526020016000815250908060018154018082558091505060019003906000526020600020906004020160009091909190915060008201518160000160006101000a81548173ffffffffffffffffffffffffffffffffffffffff021916908373ffffffffffffffffffffffffffffffffffffffff160217905550602082015181600101556040820151816002015560608201518160030155505050505050565b600080600a8481548110610cf557fe5b906000526020600020906004020190506000600b600086815260200190815260200160002060008573ffffffffffffffffffffffffffffffffffffffff1673ffffffffffffffffffffffffffffffffffffffff168152602001908152602001600020905060008260030154905060008360000160009054906101000a900473ffffffffffffffffffffffffffffffffffffffff1673ffffffffffffffffffffffffffffffffffffffff166370a08231306040518263ffffffff1660e01b8152600401808273ffffffffffffffffffffffffffffffffffffffff16815260200191505060206040518083038186803b158015610def57600080fd5b505afa158015610e03573d6000803e3d6000fd5b505050506040513d6020811015610e1957600080fd5b81019080805190602001909291905050509050836002015443118015610e40575060008114155b15610edb576000610e558560020154436118c9565b90506000610e98600c54610e8a8860010154610e7c6008548761294f90919063ffffffff16565b61294f90919063ffffffff16565b6129d590919063ffffffff16565b9050610ed6610ec784610eb964e8d4a510008561294f90919063ffffffff16565b6129d590919063ffffffff16565b856128c790919063ffffffff16565b935050505b610f1f8360010154610f1164e8d4a51000610f0386886000015461294f90919063ffffffff16565b6129d590919063ffffffff16565b612a1f90919063ffffffff16565b94505050505092915050565b600660009054906101000a900473ffffffffffffffffffffffffffffffffffffffff1681565b81600a805490508110610fcc576040517f08c379a000000000000000000000000000000000000000000000000000000000815260040180806020018281038252601a8152602001807f76616c6964617465506f6f6c3a20706f6f6c206578697374733f00000000000081525060200191505060405180910390fd5b6000600a8481548110610fdb57fe5b906000526020600020906004020190506000600b600086815260200190815260200160002060003373ffffffffffffffffffffffffffffffffffffffff1673ffffffffffffffffffffffffffffffffffffffff168152602001908152602001600020905083816000015410156110b9576040517f08c379a00000000000000000000000000000000000000000000000000000000081526004018080602001828103825260128152602001807f77697468647261773a206e6f7420676f6f64000000000000000000000000000081525060200191505060405180910390fd5b6110c285612a69565b600061110c82600101546110fe64e8d4a510006110f08760030154876000015461294f90919063ffffffff16565b6129d590919063ffffffff16565b612a1f90919063ffffffff16565b905060008111156111225761112133826131b1565b5b600085111561119a57611142858360000154612a1f90919063ffffffff16565b826000018190555061119933868560000160009054906101000a900473ffffffffffffffffffffffffffffffffffffffff1673ffffffffffffffffffffffffffffffffffffffff1661342a9092919063ffffffff16565b5b6111cc64e8d4a510006111be8560030154856000015461294f90919063ffffffff16565b6129d590919063ffffffff16565b8260010181905550853373ffffffffffffffffffffffffffffffffffffffff167ff279e6a1f5e320cca91135676d9cb6e44ca8a08c0b88342bcdb1144f6511b568876040518082815260200191505060405180910390a3505050505050565b600d5481565b600080600b600085815260200190815260200160002060008473ffffffffffffffffffffffffffffffffffffffff1673ffffffffffffffffffffffffffffffffffffffff1681526020019081526020016000209050806000015491505092915050565b80600a80549050811061130f576040517f08c379a000000000000000000000000000000000000000000000000000000000815260040180806020018281038252601a8152602001807f76616c6964617465506f6f6c3a20706f6f6c206578697374733f00000000000081525060200191505060405180910390fd5b6000600a838154811061131e57fe5b906000526020600020906004020190506000600b600085815260200190815260200160002060003373ffffffffffffffffffffffffffffffffffffffff1673ffffffffffffffffffffffffffffffffffffffff16815260200190815260200160002090506113d53382600001548460000160009054906101000a900473ffffffffffffffffffffffffffffffffffffffff1673ffffffffffffffffffffffffffffffffffffffff1661342a9092919063ffffffff16565b833373ffffffffffffffffffffffffffffffffffffffff167fbb757047c2b5f3974fe26b7c10f732e7bce710b0952a71082702781e62ae059583600001546040518082815260200191505060405180910390a3600081600001819055506000816001018190555050505050565b600560009054906101000a900473ffffffffffffffffffffffffffffffffffffffff1673ffffffffffffffffffffffffffffffffffffffff163373ffffffffffffffffffffffffffffffffffffffff1614611505576040517f08c379a000000000000000000000000000000000000000000000000000000000815260040180806020018281038252600a8152602001807f6465763a20776861743f0000000000000000000000000000000000000000000081525060200191505060405180910390fd5b80600560006101000a81548173ffffffffffffffffffffffffffffffffffffffff021916908373ffffffffffffffffffffffffffffffffffffffff16021790555050565b60085481565b61155761278b565b73ffffffffffffffffffffffffffffffffffffffff1660008054906101000a900473ffffffffffffffffffffffffffffffffffffffff1673ffffffffffffffffffffffffffffffffffffffff1614611617576040517f08c379a00000000000000000000000000000000000000000000000000000000081526004018080602001828103825260208152602001807f4f776e61626c653a2063616c6c6572206973206e6f7420746865206f776e657281525060200191505060405180910390fd5b82600a805490508110611692576040517f08c379a000000000000000000000000000000000000000000000000000000000815260040180806020018281038252601a8152602001807f76616c6964617465506f6f6c3a20706f6f6c206578697374733f00000000000081525060200191505060405180910390fd5b81156116a1576116a0612793565b5b6116e6836116d8600a87815481106116b557fe5b906000526020600020906004020160010154600c54612a1f90919063ffffffff16565b6128c790919063ffffffff16565b600c8190555082600a85815481106116fa57fe5b90600052602060002090600402016001018190555050505050565b61171d61278b565b73ffffffffffffffffffffffffffffffffffffffff1660008054906101000a900473ffffffffffffffffffffffffffffffffffffffff1673ffffffffffffffffffffffffffffffffffffffff16146117dd576040517f08c379a00000000000000000000000000000000000000000000000000000000081526004018080602001828103825260208152602001807f4f776e61626c653a2063616c6c6572206973206e6f7420746865206f776e657281525060200191505060405180910390fd5b600073ffffffffffffffffffffffffffffffffffffffff1660008054906101000a900473ffffffffffffffffffffffffffffffffffffffff1673ffffffffffffffffffffffffffffffffffffffff167f8be0079c531659141344cd1fd0a4f28419497f9722a3daafe3b4186f6b6457e060405160405180910390a360008060006101000a81548173ffffffffffffffffffffffffffffffffffffffff021916908373ffffffffffffffffffffffffffffffffffffffff160217905550565b600281565b60008060009054906101000a900473ffffffffffffffffffffffffffffffffffffffff16905090565b60006007548211611901576118fa60026118ec8585612a1f90919063ffffffff16565b61294f90919063ffffffff16565b9050611975565b60075483106119245761191d8383612a1f90919063ffffffff16565b9050611975565b61197261193c60075484612a1f90919063ffffffff16565b611964600261195687600754612a1f90919063ffffffff16565b61294f90919063ffffffff16565b6128c790919063ffffffff16565b90505b92915050565b600b602052816000526040600020602052806000526040600020600091509150508060000154908060010154905082565b600660009054906101000a900473ffffffffffffffffffffffffffffffffffffffff1673ffffffffffffffffffffffffffffffffffffffff163373ffffffffffffffffffffffffffffffffffffffff1614611a6f576040517f08c379a000000000000000000000000000000000000000000000000000000000815260040180806020018281038252600a8152602001807f6465763a20776861743f0000000000000000000000000000000000000000000081525060200191505060405180910390fd5b80600660006101000a81548173ffffffffffffffffffffffffffffffffffffffff021916908373ffffffffffffffffffffffffffffffffffffffff16021790555050565b600560009054906101000a900473ffffffffffffffffffffffffffffffffffffffff1681565b600460009054906101000a900473ffffffffffffffffffffffffffffffffffffffff1673ffffffffffffffffffffffffffffffffffffffff163373ffffffffffffffffffffffffffffffffffffffff1614611b9c576040517f08c379a000000000000000000000000000000000000000000000000000000000815260040180806020018281038252600a8152602001807f6465763a20776861743f0000000000000000000000000000000000000000000081525060200191505060405180910390fd5b80600460006101000a81548173ffffffffffffffffffffffffffffffffffffffff021916908373ffffffffffffffffffffffffffffffffffffffff16021790555050565b611be861278b565b73ffffffffffffffffffffffffffffffffffffffff1660008054906101000a900473ffffffffffffffffffffffffffffffffffffffff1673ffffffffffffffffffffffffffffffffffffffff1614611ca8576040517f08c379a00000000000000000000000000000000000000000000000000000000081526004018080602001828103825260208152602001807f4f776e61626c653a2063616c6c6572206973206e6f7420746865206f776e657281525060200191505060405180910390fd5b6000600960006101000a81548160ff021916908315150217905550565b603281565b611cd261278b565b73ffffffffffffffffffffffffffffffffffffffff1660008054906101000a900473ffffffffffffffffffffffffffffffffffffffff1673ffffffffffffffffffffffffffffffffffffffff1614611d92576040517f08c379a00000000000000000000000000000000000000000000000000000000081526004018080602001828103825260208152602001807f4f776e61626c653a2063616c6c6572206973206e6f7420746865206f776e657281525060200191505060405180910390fd5b8060088190555050565b600260009054906101000a900473ffffffffffffffffffffffffffffffffffffffff1673ffffffffffffffffffffffffffffffffffffffff163373ffffffffffffffffffffffffffffffffffffffff1614611e5f576040517f08c379a000000000000000000000000000000000000000000000000000000000815260040180806020018281038252600a8152602001807f6465763a20776861743f0000000000000000000000000000000000000000000081525060200191505060405180910390fd5b80600260006101000a81548173ffffffffffffffffffffffffffffffffffffffff021916908373ffffffffffffffffffffffffffffffffffffffff16021790555050565b600260009054906101000a900473ffffffffffffffffffffffffffffffffffffffff1681565b600360009054906101000a900473ffffffffffffffffffffffffffffffffffffffff1681565b81600a805490508110611f6a576040517f08c379a000000000000000000000000000000000000000000000000000000000815260040180806020018281038252601a8152602001807f76616c6964617465506f6f6c3a20706f6f6c206578697374733f00000000000081525060200191505060405180910390fd5b600960009054906101000a900460ff161561237657600260009054906101000a900473ffffffffffffffffffffffffffffffffffffffff1673ffffffffffffffffffffffffffffffffffffffff163373ffffffffffffffffffffffffffffffffffffffff1614806120285750600360009054906101000a900473ffffffffffffffffffffffffffffffffffffffff1673ffffffffffffffffffffffffffffffffffffffff163373ffffffffffffffffffffffffffffffffffffffff16145b806120805750600460009054906101000a900473ffffffffffffffffffffffffffffffffffffffff1673ffffffffffffffffffffffffffffffffffffffff163373ffffffffffffffffffffffffffffffffffffffff16145b806120d85750600560009054906101000a900473ffffffffffffffffffffffffffffffffffffffff1673ffffffffffffffffffffffffffffffffffffffff163373ffffffffffffffffffffffffffffffffffffffff16145b806121305750600660009054906101000a900473ffffffffffffffffffffffffffffffffffffffff1673ffffffffffffffffffffffffffffffffffffffff163373ffffffffffffffffffffffffffffffffffffffff16145b612185576040517f08c379a000000000000000000000000000000000000000000000000000000000815260040180806020018281038252603a815260200180613a5a603a913960400191505060405180910390fd5b6000600a848154811061219457fe5b906000526020600020906004020190506000600b600086815260200190815260200160002060003373ffffffffffffffffffffffffffffffffffffffff1673ffffffffffffffffffffffffffffffffffffffff168152602001908152602001600020905061220185612a69565b600081600001541115612270576000612258826001015461224a64e8d4a5100061223c8760030154876000015461294f90919063ffffffff16565b6129d590919063ffffffff16565b612a1f90919063ffffffff16565b9050600081111561226e5761226d33826131b1565b5b505b60008411156122ea576122ca3330868560000160009054906101000a900473ffffffffffffffffffffffffffffffffffffffff1673ffffffffffffffffffffffffffffffffffffffff166134cc909392919063ffffffff16565b6122e18482600001546128c790919063ffffffff16565b81600001819055505b61231c64e8d4a5100061230e8460030154846000015461294f90919063ffffffff16565b6129d590919063ffffffff16565b8160010181905550843373ffffffffffffffffffffffffffffffffffffffff167f90890809c654f11d6e72a28fa60149770a0d11ec6c92319d6ceb2bb0a4ea1a15866040518082815260200191505060405180910390a350505b600960009054906101000a900460ff1661257b576000600a848154811061239957fe5b906000526020600020906004020190506000600b600086815260200190815260200160002060003373ffffffffffffffffffffffffffffffffffffffff1673ffffffffffffffffffffffffffffffffffffffff168152602001908152602001600020905061240685612a69565b60008160000154111561247557600061245d826001015461244f64e8d4a510006124418760030154876000015461294f90919063ffffffff16565b6129d590919063ffffffff16565b612a1f90919063ffffffff16565b905060008111156124735761247233826131b1565b5b505b60008411156124ef576124cf3330868560000160009054906101000a900473ffffffffffffffffffffffffffffffffffffffff1673ffffffffffffffffffffffffffffffffffffffff166134cc909392919063ffffffff16565b6124e68482600001546128c790919063ffffffff16565b81600001819055505b61252164e8d4a510006125138460030154846000015461294f90919063ffffffff16565b6129d590919063ffffffff16565b8160010181905550843373ffffffffffffffffffffffffffffffffffffffff167f90890809c654f11d6e72a28fa60149770a0d11ec6c92319d6ceb2bb0a4ea1a15866040518082815260200191505060405180910390a350505b505050565b61258861278b565b73ffffffffffffffffffffffffffffffffffffffff1660008054906101000a900473ffffffffffffffffffffffffffffffffffffffff1673ffffffffffffffffffffffffffffffffffffffff1614612648576040517f08c379a00000000000000000000000000000000000000000000000000000000081526004018080602001828103825260208152602001807f4f776e61626c653a2063616c6c6572206973206e6f7420746865206f776e657281525060200191505060405180910390fd5b600073ffffffffffffffffffffffffffffffffffffffff168173ffffffffffffffffffffffffffffffffffffffff1614156126ce576040517f08c379a0000000000000000000000000000000000000000000000000000000008152600401808060200182810382526026815260200180613a346026913960400191505060405180910390fd5b8073ffffffffffffffffffffffffffffffffffffffff1660008054906101000a900473ffffffffffffffffffffffffffffffffffffffff1673ffffffffffffffffffffffffffffffffffffffff167f8be0079c531659141344cd1fd0a4f28419497f9722a3daafe3b4186f6b6457e060405160405180910390a3806000806101000a81548173ffffffffffffffffffffffffffffffffffffffff021916908373ffffffffffffffffffffffffffffffffffffffff16021790555050565b600033905090565b6000600a80549050905060005b818110156127bc576127b181612a69565b8060010190506127a0565b5050565b6000600a80549050905060005b818110156128c2578273ffffffffffffffffffffffffffffffffffffffff16600a82815481106127f957fe5b906000526020600020906004020160000160009054906101000a900473ffffffffffffffffffffffffffffffffffffffff1673ffffffffffffffffffffffffffffffffffffffff1614156128b5576040517f08c379a00000000000000000000000000000000000000000000000000000000081526004018080602001828103825260128152602001807f6164643a206578697374696e6720706f6f6c000000000000000000000000000081525060200191505060405180910390fd5b80806001019150506127cd565b505050565b600080828401905083811015612945576040517f08c379a000000000000000000000000000000000000000000000000000000000815260040180806020018281038252601b8152602001807f536166654d6174683a206164646974696f6e206f766572666c6f77000000000081525060200191505060405180910390fd5b8091505092915050565b60008083141561296257600090506129cf565b600082840290508284828161297357fe5b04146129ca576040517f08c379a0000000000000000000000000000000000000000000000000000000008152600401808060200182810382526021815260200180613a946021913960400191505060405180910390fd5b809150505b92915050565b6000612a1783836040518060400160405280601a81526020017f536166654d6174683a206469766973696f6e206279207a65726f00000000000081525061358d565b905092915050565b6000612a6183836040518060400160405280601e81526020017f536166654d6174683a207375627472616374696f6e206f766572666c6f770000815250613653565b905092915050565b80600a805490508110612ae4576040517f08c379a000000000000000000000000000000000000000000000000000000000815260040180806020018281038252601a8152602001807f76616c6964617465506f6f6c3a20706f6f6c206578697374733f00000000000081525060200191505060405180910390fd5b6000600a8381548110612af357fe5b9060005260206000209060040201905080600201544311612b1457506131ad565b60008160000160009054906101000a900473ffffffffffffffffffffffffffffffffffffffff1673ffffffffffffffffffffffffffffffffffffffff166370a08231306040518263ffffffff1660e01b8152600401808273ffffffffffffffffffffffffffffffffffffffff16815260200191505060206040518083038186803b158015612ba157600080fd5b505afa158015612bb5573d6000803e3d6000fd5b505050506040513d6020811015612bcb57600080fd5b810190808051906020019092919050505090506000811415612bf75743826002018190555050506131ad565b6000612c078360020154436118c9565b90506000612c4a600c54612c3c8660010154612c2e6008548761294f90919063ffffffff16565b61294f90919063ffffffff16565b6129d590919063ffffffff16565b9050600160009054906101000a900473ffffffffffffffffffffffffffffffffffffffff1673ffffffffffffffffffffffffffffffffffffffff166340c10f19600260009054906101000a900473ffffffffffffffffffffffffffffffffffffffff16612cc16032856129d590919063ffffffff16565b6040518363ffffffff1660e01b8152600401808373ffffffffffffffffffffffffffffffffffffffff16815260200182815260200192505050600060405180830381600087803b158015612d1457600080fd5b505af1158015612d28573d6000803e3d6000fd5b50505050600160009054906101000a900473ffffffffffffffffffffffffffffffffffffffff1673ffffffffffffffffffffffffffffffffffffffff166340c10f19600360009054906101000a900473ffffffffffffffffffffffffffffffffffffffff16612da16032856129d590919063ffffffff16565b6040518363ffffffff1660e01b8152600401808373ffffffffffffffffffffffffffffffffffffffff16815260200182815260200192505050600060405180830381600087803b158015612df457600080fd5b505af1158015612e08573d6000803e3d6000fd5b50505050600160009054906101000a900473ffffffffffffffffffffffffffffffffffffffff1673ffffffffffffffffffffffffffffffffffffffff166340c10f19600460009054906101000a900473ffffffffffffffffffffffffffffffffffffffff16612e816032856129d590919063ffffffff16565b6040518363ffffffff1660e01b8152600401808373ffffffffffffffffffffffffffffffffffffffff16815260200182815260200192505050600060405180830381600087803b158015612ed457600080fd5b505af1158015612ee8573d6000803e3d6000fd5b50505050600160009054906101000a900473ffffffffffffffffffffffffffffffffffffffff1673ffffffffffffffffffffffffffffffffffffffff166340c10f19600560009054906101000a900473ffffffffffffffffffffffffffffffffffffffff16612f616032856129d590919063ffffffff16565b6040518363ffffffff1660e01b8152600401808373ffffffffffffffffffffffffffffffffffffffff16815260200182815260200192505050600060405180830381600087803b158015612fb457600080fd5b505af1158015612fc8573d6000803e3d6000fd5b50505050600160009054906101000a900473ffffffffffffffffffffffffffffffffffffffff1673ffffffffffffffffffffffffffffffffffffffff166340c10f19600660009054906101000a900473ffffffffffffffffffffffffffffffffffffffff166130416032856129d590919063ffffffff16565b6040518363ffffffff1660e01b8152600401808373ffffffffffffffffffffffffffffffffffffffff16815260200182815260200192505050600060405180830381600087803b15801561309457600080fd5b505af11580156130a8573d6000803e3d6000fd5b50505050600160009054906101000a900473ffffffffffffffffffffffffffffffffffffffff1673ffffffffffffffffffffffffffffffffffffffff166340c10f1930836040518363ffffffff1660e01b8152600401808373ffffffffffffffffffffffffffffffffffffffff16815260200182815260200192505050600060405180830381600087803b15801561313f57600080fd5b505af1158015613153573d6000803e3d6000fd5b505050506131976131848461317664e8d4a510008561294f90919063ffffffff16565b6129d590919063ffffffff16565b85600301546128c790919063ffffffff16565b8460030181905550438460020181905550505050505b5050565b6000600160009054906101000a900473ffffffffffffffffffffffffffffffffffffffff1673ffffffffffffffffffffffffffffffffffffffff166370a08231306040518263ffffffff1660e01b8152600401808273ffffffffffffffffffffffffffffffffffffffff16815260200191505060206040518083038186803b15801561323c57600080fd5b505afa158015613250573d6000803e3d6000fd5b505050506040513d602081101561326657600080fd5b810190808051906020019092919050505090508082111561335557600160009054906101000a900473ffffffffffffffffffffffffffffffffffffffff1673ffffffffffffffffffffffffffffffffffffffff1663a9059cbb84836040518363ffffffff1660e01b8152600401808373ffffffffffffffffffffffffffffffffffffffff16815260200182815260200192505050602060405180830381600087803b15801561331457600080fd5b505af1158015613328573d6000803e3d6000fd5b505050506040513d602081101561333e57600080fd5b810190808051906020019092919050505050613425565b600160009054906101000a900473ffffffffffffffffffffffffffffffffffffffff1673ffffffffffffffffffffffffffffffffffffffff1663a9059cbb84846040518363ffffffff1660e01b8152600401808373ffffffffffffffffffffffffffffffffffffffff16815260200182815260200192505050602060405180830381600087803b1580156133e857600080fd5b505af11580156133fc573d6000803e3d6000fd5b505050506040513d602081101561341257600080fd5b8101908080519060200190929190505050505b505050565b6134c78363a9059cbb60e01b8484604051602401808373ffffffffffffffffffffffffffffffffffffffff16815260200182815260200192505050604051602081830303815290604052907bffffffffffffffffffffffffffffffffffffffffffffffffffffffff19166020820180517bffffffffffffffffffffffffffffffffffffffffffffffffffffffff8381831617835250505050613713565b505050565b613587846323b872dd60e01b858585604051602401808473ffffffffffffffffffffffffffffffffffffffff1681526020018373ffffffffffffffffffffffffffffffffffffffff1681526020018281526020019350505050604051602081830303815290604052907bffffffffffffffffffffffffffffffffffffffffffffffffffffffff19166020820180517bffffffffffffffffffffffffffffffffffffffffffffffffffffffff8381831617835250505050613713565b50505050565b60008083118290613639576040517f08c379a00000000000000000000000000000000000000000000000000000000081526004018080602001828103825283818151815260200191508051906020019080838360005b838110156135fe5780820151818401526020810190506135e3565b50505050905090810190601f16801561362b5780820380516001836020036101000a031916815260200191505b509250505060405180910390fd5b50600083858161364557fe5b049050809150509392505050565b6000838311158290613700576040517f08c379a00000000000000000000000000000000000000000000000000000000081526004018080602001828103825283818151815260200191508051906020019080838360005b838110156136c55780820151818401526020810190506136aa565b50505050905090810190601f1680156136f25780820380516001836020036101000a031916815260200191505b509250505060405180910390fd5b5060008385039050809150509392505050565b6060613775826040518060400160405280602081526020017f5361666545524332303a206c6f772d6c6576656c2063616c6c206661696c65648152508573ffffffffffffffffffffffffffffffffffffffff166138029092919063ffffffff16565b90506000815111156137fd5780806020019051602081101561379657600080fd5b81019080805190602001909291905050506137fc576040517f08c379a000000000000000000000000000000000000000000000000000000000815260040180806020018281038252602a815260200180613ab5602a913960400191505060405180910390fd5b5b505050565b6060613811848460008561381a565b90509392505050565b606061382585613a20565b613897576040517f08c379a000000000000000000000000000000000000000000000000000000000815260040180806020018281038252601d8152602001807f416464726573733a2063616c6c20746f206e6f6e2d636f6e747261637400000081525060200191505060405180910390fd5b600060608673ffffffffffffffffffffffffffffffffffffffff1685876040518082805190602001908083835b602083106138e757805182526020820191506020810190506020830392506138c4565b6001836020036101000a03801982511681845116808217855250505050505090500191505060006040518083038185875af1925050503d8060008114613949576040519150601f19603f3d011682016040523d82523d6000602084013e61394e565b606091505b50915091508115613963578092505050613a18565b6000815111156139765780518082602001fd5b836040517f08c379a00000000000000000000000000000000000000000000000000000000081526004018080602001828103825283818151815260200191508051906020019080838360005b838110156139dd5780820151818401526020810190506139c2565b50505050905090810190601f168015613a0a5780820380516001836020036101000a031916815260200191505b509250505060405180910390fd5b949350505050565b600080823b90506000811191505091905056fe4f776e61626c653a206e6577206f776e657220697320746865207a65726f2061646472657373596f75722061646472657373206973206e6f742061206465762c20706c6561736520617761697420666f72207075626c6963206661726d696e67536166654d6174683a206d756c7469706c69636174696f6e206f766572666c6f775361666545524332303a204552433230206f7065726174696f6e20646964206e6f742073756363656564a264697066735822122011127dfc173c8bd2d48becd1310676ce1b408403e428e887c8a334cdb800e9ea64736f6c634300060c0033",
  "immutableReferences": {},
  "source": "// SPDX-License-Identifier: WTFPL\npragma solidity ^0.6.12;\n\n\nimport \"@openzeppelin/contracts/token/ERC20/IERC20.sol\";\nimport \"@openzeppelin/contracts/token/ERC20/SafeERC20.sol\";\nimport \"@openzeppelin/contracts/utils/EnumerableSet.sol\";\nimport \"@openzeppelin/contracts/math/SafeMath.sol\";\nimport \"@openzeppelin/contracts/access/Ownable.sol\";\nimport \"./BroccoliToken.sol\";\n\n// BroccoliMaster is the hub that accumulates and distributes BROC\n//\n// Note that it's ownable and the owner wields tremendous power. The ownership\n// will be transferred to a governance smart contract once BROC is sufficiently\n// distributed and the community can show to govern itself.\n//\ncontract BroccoliMaster is Ownable {\n    using SafeMath for uint256; //Open zeppeling sefe libraries\n    using SafeERC20 for IERC20; \n\n    // Info of each user.\n    struct UserInfo {\n        uint256 amount;     // How many LP tokens the user has provided.\n        uint256 rewardDebt; // Reward debt. See explanation below.\n    }\n\n    // Info of each pool.\n    struct PoolInfo {\n        IERC20 lpToken;           // Address of LP token contract.\n        uint256 allocPoint;       // How many allocation points assigned to this pool. BROCs to distribute per block.\n        uint256 lastRewardBlock;  // Last block number that BROCs distribution occurs.\n        uint256 accBrocPerShare; // Accumulated BROCs per share, times 1e12. See below.\n    }\n\n    // The BROC TOKEN!\n    BroccoliToken public broc; \n    // Devs addresses\n    address public devaddr;\n    address public devaddrtwo;\n    address public devaddrthree;\n    address public devaddrfour;\n    address public devaddrfive;\n    // Block number when bonus BROC period ends.\n    uint256 public bonusEndBlock;\n    // BROC tokens created per block.\n    uint256 public brocPerBlock;\n    // Bonus multiplier for early broc makers.\n    uint256 public constant BONUS_MULTIPLIER = 2;\n\t// dev shares 10.0%\n    uint256 public constant DEV_SHARES = 50; //reward / 50 = 2% X 5 Devs Addresses = 10%\n\t//bool for first hours of private farming\n    bool privateFarm;\n    // Info of each pool.\n    PoolInfo[] public poolInfo;\n    // Info of each user that stakes LP tokens.\n    mapping (uint256 => mapping (address => UserInfo)) public userInfo;\n    // Total allocation poitns. Must be the sum of all allocation points in all pools.\n    uint256 public totalAllocPoint = 0;\n    // The block number when BROC mining starts.\n    uint256 public startBlock;\n\n    event Deposit(address indexed user, uint256 indexed pid, uint256 amount);\n    event Withdraw(address indexed user, uint256 indexed pid, uint256 amount);\n    event EmergencyWithdraw(address indexed user, uint256 indexed pid, uint256 amount);\n\n    modifier validatePool(uint256 _pid) {\n        require(_pid < poolInfo.length, \"validatePool: pool exists?\");\n        _;\n    }\n\n    constructor(\n        BroccoliToken _broc,\n        address _devaddr,\n        address _devaddrtwo,\n        address _devaddrthree,\n        address _devaddrfour,\n        address _devaddrfive,\n        uint256 _brocPerBlock,\n        uint256 _startBlock,\n        uint256 _bonusEndBlock,\n        bool _privateFarm\n    ) public {\n        broc = _broc;\n        devaddr = _devaddr;\n        devaddrtwo = _devaddrtwo;\n        devaddrthree = _devaddrthree;\n        devaddrfour = _devaddrfour;\n        devaddrfive = _devaddrfive;\n        brocPerBlock = _brocPerBlock;\n        bonusEndBlock = _bonusEndBlock;\n        startBlock = _startBlock;\n        privateFarm = _privateFarm;\n    }\n\n    function poolLength() external view returns (uint256) { //devuelve la cantidad de struct pools\n        return poolInfo.length;\n    }\n\n    function changeBrocPerBlock(uint256 _newBrocPerBlock) public onlyOwner { //cambia la generacion de broc por block\n        brocPerBlock = _newBrocPerBlock;\n    }\n\n    // Detects whether the given pool already exists\n    function checkPoolDuplicate(IERC20 _lpToken) internal {\n        uint256 length = poolInfo.length;\n        for (uint256 _pid = 0; _pid < length; _pid++) {\n            require(poolInfo[_pid].lpToken != _lpToken, \"add: existing pool\");\n        }\n    }\n\n    // Add a new lp to the pool. Can only be called by the owner.\n    // XXX DO NOT add the same LP token more than once. Rewards will be messed up if you do.\n    function add(uint256 _allocPoint, IERC20 _lpToken, bool _withUpdate) public onlyOwner {\n        if (_withUpdate) {\n            massUpdatePools();\n        }\n        checkPoolDuplicate(_lpToken);\n        uint256 lastRewardBlock = block.number > startBlock ? block.number : startBlock;\n        totalAllocPoint = totalAllocPoint.add(_allocPoint);\n        poolInfo.push(PoolInfo({\n            lpToken: _lpToken,\n            allocPoint: _allocPoint,\n            lastRewardBlock: lastRewardBlock,\n            accBrocPerShare: 0\n        }));\n    }\n\n    // Update the given pool's BROC allocation point. Can only be called by the owner.\n    function set(uint256 _pid, uint256 _allocPoint, bool _withUpdate) public onlyOwner validatePool(_pid) {\n        if (_withUpdate) {\n            massUpdatePools();\n        }\n        totalAllocPoint = totalAllocPoint.sub(poolInfo[_pid].allocPoint).add(_allocPoint);\n        poolInfo[_pid].allocPoint = _allocPoint;\n    }\n\n    // Return reward multiplier over the given _from to _to block.\n    function getMultiplier(uint256 _from, uint256 _to) public view returns (uint256) {\n        if (_to <= bonusEndBlock) {\n            return _to.sub(_from).mul(BONUS_MULTIPLIER);\n        } else if (_from >= bonusEndBlock) {\n            return _to.sub(_from);\n        } else {\n            return bonusEndBlock.sub(_from).mul(BONUS_MULTIPLIER).add(\n                _to.sub(bonusEndBlock)\n            );\n        }\n    }\n\n    // View function to see staked amount in pool on frontend\n    function staked(uint256 _pid, address _user) external view returns(uint256){\n        UserInfo storage user = userInfo[_pid][_user];\n        return user.amount;\n    }\n\n    // View function to see pending BROCs on frontend.\n    function pendingBroc(uint256 _pid, address _user) external view returns (uint256) {\n        PoolInfo storage pool = poolInfo[_pid];\n        UserInfo storage user = userInfo[_pid][_user];\n        uint256 accBrocPerShare = pool.accBrocPerShare;\n        uint256 lpSupply = pool.lpToken.balanceOf(address(this));\n        if (block.number > pool.lastRewardBlock && lpSupply != 0) {\n            uint256 multiplier = getMultiplier(pool.lastRewardBlock, block.number);\n            uint256 brocReward = multiplier.mul(brocPerBlock).mul(pool.allocPoint).div(totalAllocPoint);\n            accBrocPerShare = accBrocPerShare.add(brocReward.mul(1e12).div(lpSupply));\n        }\n        return user.amount.mul(accBrocPerShare).div(1e12).sub(user.rewardDebt); //hace la cuenta de arriba de debt\n    }\t\n\n    // Update reward variables for all pools. Be careful of gas spending!\n    function massUpdatePools() internal {\n        uint256 length = poolInfo.length;\n        for (uint256 pid = 0; pid < length; ++pid) {\n            updatePool(pid);\n        }\n    }\n\n    // Update reward variables of the given pool to be up-to-date.\n    function updatePool(uint256 _pid) internal validatePool(_pid) { //en este pool tambien se hace mint al devshare\n        PoolInfo storage pool = poolInfo[_pid];\n        if (block.number <= pool.lastRewardBlock) {\n            return;\n        }\n        uint256 lpSupply = pool.lpToken.balanceOf(address(this));\n        if (lpSupply == 0) {\n            pool.lastRewardBlock = block.number;\n            return;\n        }\n        uint256 multiplier = getMultiplier(pool.lastRewardBlock, block.number);\n        uint256 brocReward = multiplier.mul(brocPerBlock).mul(pool.allocPoint).div(totalAllocPoint);\n        broc.mint(devaddr, brocReward.div(DEV_SHARES));\n        broc.mint(devaddrtwo, brocReward.div(DEV_SHARES));\n        broc.mint(devaddrthree, brocReward.div(DEV_SHARES));\n        broc.mint(devaddrfour, brocReward.div(DEV_SHARES));\n        broc.mint(devaddrfive, brocReward.div(DEV_SHARES));\n        broc.mint(address(this), brocReward);\n        pool.accBrocPerShare = pool.accBrocPerShare.add(brocReward.mul(1e12).div(lpSupply));\n        pool.lastRewardBlock = block.number;\n    }\n\n    // Deposit LP tokens to BroccoliMaster for BROC allocation. Conditioned by privateFarming bool\n    function deposit(uint256 _pid, uint256 _amount) public validatePool(_pid) {\n        //for dev test previous oficial launch, we need to test without worries in the mainet\n        if(privateFarm){\n        require(msg.sender == devaddr || msg.sender == devaddrtwo || msg.sender == devaddrthree || msg.sender == devaddrfour || msg.sender == devaddrfive,\"Your address is not a dev, please await for public farming\");\n        PoolInfo storage pool = poolInfo[_pid];\n        UserInfo storage user = userInfo[_pid][msg.sender];\n        updatePool(_pid);\n\n        if (user.amount > 0) {\n            uint256 pending = user.amount.mul(pool.accBrocPerShare).div(1e12).sub(user.rewardDebt);\n            if(pending > 0) {\n                safeBrocTransfer(msg.sender, pending);\n            }\n        }\n        if(_amount > 0) {\n            pool.lpToken.safeTransferFrom(address(msg.sender), address(this), _amount);\n            user.amount = user.amount.add(_amount);\n        }\n        user.rewardDebt = user.amount.mul(pool.accBrocPerShare).div(1e12);        \n        emit Deposit(msg.sender, _pid, _amount);\n    }\n        if(!privateFarm){\n        PoolInfo storage pool = poolInfo[_pid];\n        UserInfo storage user = userInfo[_pid][msg.sender];\n        updatePool(_pid);\n\n        if (user.amount > 0) {\n            uint256 pending = user.amount.mul(pool.accBrocPerShare).div(1e12).sub(user.rewardDebt);\n            if(pending > 0) {\n                safeBrocTransfer(msg.sender, pending);\n            }\n        }\n        if(_amount > 0) {\n            pool.lpToken.safeTransferFrom(address(msg.sender), address(this), _amount);\n            user.amount = user.amount.add(_amount);\n        }\n        user.rewardDebt = user.amount.mul(pool.accBrocPerShare).div(1e12);        \n        emit Deposit(msg.sender, _pid, _amount);\n    }\n    }\n\n    // Withdraw LP tokens from BroccoliMaster.\n    function withdraw(uint256 _pid, uint256 _amount) public validatePool(_pid) {\n        PoolInfo storage pool = poolInfo[_pid];\n        UserInfo storage user = userInfo[_pid][msg.sender];\n        require(user.amount >= _amount, \"withdraw: not good\");\n        updatePool(_pid);\n        uint256 pending = user.amount.mul(pool.accBrocPerShare).div(1e12).sub(user.rewardDebt);\n        if(pending > 0) {\n            safeBrocTransfer(msg.sender, pending);\n        }\n        if(_amount > 0) {\n            user.amount = user.amount.sub(_amount);\n            pool.lpToken.safeTransfer(address(msg.sender), _amount);\n        }\n        user.rewardDebt = user.amount.mul(pool.accBrocPerShare).div(1e12);\n        emit Withdraw(msg.sender, _pid, _amount);\n    }\n\n    // Withdraw without caring about rewards. EMERGENCY ONLY.\n    function emergencyWithdraw(uint256 _pid) public validatePool(_pid) {\n        PoolInfo storage pool = poolInfo[_pid];\n        UserInfo storage user = userInfo[_pid][msg.sender];\n        pool.lpToken.safeTransfer(address(msg.sender), user.amount);\n        emit EmergencyWithdraw(msg.sender, _pid, user.amount);\n        user.amount = 0;\n        user.rewardDebt = 0;\n    }\n\n    // Safe broc transfer function, just in case if rounding error causes pool to not have enough BROCs.\n    function safeBrocTransfer(address _to, uint256 _amount) internal {\n        uint256 brocBal = broc.balanceOf(address(this));\n        if (_amount > brocBal) {\n            broc.transfer(_to, brocBal);\n        } else {\n            broc.transfer(_to, _amount);\n        }\n    }\n\n    //Desactivate address restriction for pool deposits, begin public farming\n    function setPublicFarming() external onlyOwner{\n        privateFarm = false;\n    }\n\n    // Update dev address by the previous dev.\n    function setDev(address _devaddr) public {\n        require(msg.sender == devaddr, \"dev: what?\");\n        devaddr = _devaddr;\n    }\n    function setDevTwo(address _devaddrtwo) public {\n        require(msg.sender == devaddrtwo, \"dev: what?\");\n        devaddrtwo = _devaddrtwo;\n    }\n    function setDevThree(address _devaddrthree) public {\n        require(msg.sender == devaddrthree, \"dev: what?\");\n        devaddrthree = _devaddrthree;\n    }\n    function setDevFour(address _devaddrfour) public {\n        require(msg.sender == devaddrfour, \"dev: what?\");\n        devaddrfour = _devaddrfour;\n    }\n    function setDevFive(address _devaddrfive) public {\n        require(msg.sender == devaddrfive, \"dev: what?\");\n        devaddrfive = _devaddrfive;\n    }\n}\n",
  "sourcePath": "/home/yupisenpai/Blockchain_Development/broccoliswap-contract/contracts/BroccoliMaster.sol",
  "compiler": {
    "name": "solc",
    "version": "0.6.12+commit.27d51765.Emscripten.clang"
  },
  "schemaVersion": "3.3.1",
  "updatedAt": "2020-12-03T23:57:29.814Z",
  "networkType": "ethereum",
  "devdoc": {
    "kind": "dev",
    "methods": {
      "owner()": {
        "details": "Returns the address of the current owner."
      },
      "renounceOwnership()": {
        "details": "Leaves the contract without owner. It will not be possible to call `onlyOwner` functions anymore. Can only be called by the current owner. NOTE: Renouncing ownership will leave the contract without an owner, thereby removing any functionality that is only available to the owner."
      },
      "transferOwnership(address)": {
        "details": "Transfers ownership of the contract to a new account (`newOwner`). Can only be called by the current owner."
      }
    },
    "version": 1
  },
  "userdoc": {
    "kind": "user",
    "methods": {},
    "version": 1
  }
}